{
  "contractName": "HealthInsurance",
  "abi": [
    {
      "inputs": [
        {
          "internalType": "address",
          "name": "_policyHolder",
          "type": "address"
        },
        {
          "internalType": "string",
          "name": "_name",
          "type": "string"
        },
        {
          "internalType": "uint256",
          "name": "_dateOfBirth",
          "type": "uint256"
        },
        {
          "internalType": "string",
          "name": "_gender",
          "type": "string"
        },
        {
          "internalType": "uint256",
          "name": "_policyNumber",
          "type": "uint256"
        },
        {
          "internalType": "uint256",
          "name": "_policyStartDate",
          "type": "uint256"
        },
        {
          "internalType": "uint256",
          "name": "_policyEndDate",
          "type": "uint256"
        },
        {
          "internalType": "uint256",
          "name": "_premiumAmount",
          "type": "uint256"
        }
      ],
      "stateMutability": "nonpayable",
      "type": "constructor"
    },
    {
      "inputs": [],
      "name": "dateOfBirth",
      "outputs": [
        {
          "internalType": "uint256",
          "name": "",
          "type": "uint256"
        }
      ],
      "stateMutability": "view",
      "type": "function"
    },
    {
      "inputs": [],
      "name": "gender",
      "outputs": [
        {
          "internalType": "string",
          "name": "",
          "type": "string"
        }
      ],
      "stateMutability": "view",
      "type": "function"
    },
    {
      "inputs": [
        {
          "internalType": "uint256",
          "name": "",
          "type": "uint256"
        }
      ],
      "name": "healthRecords",
      "outputs": [
        {
          "internalType": "string",
          "name": "",
          "type": "string"
        }
      ],
      "stateMutability": "view",
      "type": "function"
    },
    {
      "inputs": [],
      "name": "name",
      "outputs": [
        {
          "internalType": "string",
          "name": "",
          "type": "string"
        }
      ],
      "stateMutability": "view",
      "type": "function"
    },
    {
      "inputs": [],
      "name": "numberOfHealthRecords",
      "outputs": [
        {
          "internalType": "uint256",
          "name": "",
          "type": "uint256"
        }
      ],
      "stateMutability": "view",
      "type": "function"
    },
    {
      "inputs": [],
      "name": "policyEndDate",
      "outputs": [
        {
          "internalType": "uint256",
          "name": "",
          "type": "uint256"
        }
      ],
      "stateMutability": "view",
      "type": "function"
    },
    {
      "inputs": [],
      "name": "policyHolder",
      "outputs": [
        {
          "internalType": "address",
          "name": "",
          "type": "address"
        }
      ],
      "stateMutability": "view",
      "type": "function"
    },
    {
      "inputs": [],
      "name": "policyNumber",
      "outputs": [
        {
          "internalType": "uint256",
          "name": "",
          "type": "uint256"
        }
      ],
      "stateMutability": "view",
      "type": "function"
    },
    {
      "inputs": [],
      "name": "policyStartDate",
      "outputs": [
        {
          "internalType": "uint256",
          "name": "",
          "type": "uint256"
        }
      ],
      "stateMutability": "view",
      "type": "function"
    },
    {
      "inputs": [],
      "name": "policyStatus",
      "outputs": [
        {
          "internalType": "bool",
          "name": "",
          "type": "bool"
        }
      ],
      "stateMutability": "view",
      "type": "function"
    },
    {
      "inputs": [],
      "name": "premiumAmount",
      "outputs": [
        {
          "internalType": "uint256",
          "name": "",
          "type": "uint256"
        }
      ],
      "stateMutability": "view",
      "type": "function"
    },
    {
      "inputs": [
        {
          "internalType": "string",
          "name": "_healthRecord",
          "type": "string"
        }
      ],
      "name": "addHealthRecord",
      "outputs": [],
      "stateMutability": "nonpayable",
      "type": "function"
    },
    {
      "inputs": [
        {
          "internalType": "uint256",
          "name": "_index",
          "type": "uint256"
        }
      ],
      "name": "getHealthRecord",
      "outputs": [
        {
          "internalType": "string",
          "name": "",
          "type": "string"
        }
      ],
      "stateMutability": "view",
      "type": "function"
    },
    {
      "inputs": [],
      "name": "cancelPolicy",
      "outputs": [],
      "stateMutability": "nonpayable",
      "type": "function"
    }
  ],
  "bytecode": "0x60806040523480156200001157600080fd5b506040516200161d3803806200161d83398181016040528101906200003791906200031a565b876000806101000a81548173ffffffffffffffffffffffffffffffffffffffff021916908373ffffffffffffffffffffffffffffffffffffffff160217905550866001908162000088919062000662565b50856002819055508460039081620000a1919062000662565b50836004819055508260058190555081600681905550806007819055506001600860006101000a81548160ff021916908315150217905550505050505050505062000749565b6000604051905090565b600080fd5b600080fd5b600073ffffffffffffffffffffffffffffffffffffffff82169050919050565b60006200012882620000fb565b9050919050565b6200013a816200011b565b81146200014657600080fd5b50565b6000815190506200015a816200012f565b92915050565b600080fd5b600080fd5b6000601f19601f8301169050919050565b7f4e487b7100000000000000000000000000000000000000000000000000000000600052604160045260246000fd5b620001b5826200016a565b810181811067ffffffffffffffff82111715620001d757620001d66200017b565b5b80604052505050565b6000620001ec620000e7565b9050620001fa8282620001aa565b919050565b600067ffffffffffffffff8211156200021d576200021c6200017b565b5b62000228826200016a565b9050602081019050919050565b60005b838110156200025557808201518184015260208101905062000238565b60008484015250505050565b6000620002786200027284620001ff565b620001e0565b90508281526020810184848401111562000297576200029662000165565b5b620002a484828562000235565b509392505050565b600082601f830112620002c457620002c362000160565b5b8151620002d684826020860162000261565b91505092915050565b6000819050919050565b620002f481620002df565b81146200030057600080fd5b50565b6000815190506200031481620002e9565b92915050565b600080600080600080600080610100898b0312156200033e576200033d620000f1565b5b60006200034e8b828c0162000149565b985050602089015167ffffffffffffffff811115620003725762000371620000f6565b5b620003808b828c01620002ac565b9750506040620003938b828c0162000303565b965050606089015167ffffffffffffffff811115620003b757620003b6620000f6565b5b620003c58b828c01620002ac565b9550506080620003d88b828c0162000303565b94505060a0620003eb8b828c0162000303565b93505060c0620003fe8b828c0162000303565b92505060e0620004118b828c0162000303565b9150509295985092959890939650565b600081519050919050565b7f4e487b7100000000000000000000000000000000000000000000000000000000600052602260045260246000fd5b600060028204905060018216806200047457607f821691505b6020821081036200048a57620004896200042c565b5b50919050565b60008190508160005260206000209050919050565b60006020601f8301049050919050565b600082821b905092915050565b600060088302620004f47fffffffffffffffffffffffffffffffffffffffffffffffffffffffffffffffff82620004b5565b620005008683620004b5565b95508019841693508086168417925050509392505050565b6000819050919050565b6000620005436200053d6200053784620002df565b62000518565b620002df565b9050919050565b6000819050919050565b6200055f8362000522565b620005776200056e826200054a565b848454620004c2565b825550505050565b600090565b6200058e6200057f565b6200059b81848462000554565b505050565b5b81811015620005c357620005b760008262000584565b600181019050620005a1565b5050565b601f8211156200061257620005dc8162000490565b620005e784620004a5565b81016020851015620005f7578190505b6200060f6200060685620004a5565b830182620005a0565b50505b505050565b600082821c905092915050565b6000620006376000198460080262000617565b1980831691505092915050565b600062000652838362000624565b9150826002028217905092915050565b6200066d8262000421565b67ffffffffffffffff8111156200068957620006886200017b565b5b6200069582546200045b565b620006a2828285620005c7565b600060209050601f831160018114620006da5760008415620006c5578287015190505b620006d1858262000644565b86555062000741565b601f198416620006ea8662000490565b60005b828110156200071457848901518255600182019150602085019450602081019050620006ed565b8683101562000734578489015162000730601f89168262000624565b8355505b6001600288020188555050505b505050505050565b610ec480620007596000396000f3fe608060405234801561001057600080fd5b50600436106100ea5760003560e01c806381f8ac8e1161008c57806399066b841161006657806399066b8414610217578063a206014c14610235578063b665c0d314610253578063c5191d1a14610283576100ea565b806381f8ac8e146101ab578063839e8762146101c957806388da37b4146101f9576100ea565b80634ef2cc00116100c85780634ef2cc0014610149578063615dac4e146101535780636e591f8d1461017157806379caad861461018d576100ea565b806306fdde03146100ef57806323c88e631461010d57806344530f3a1461012b575b600080fd5b6100f76102a1565b604051610104919061078e565b60405180910390f35b61011561032f565b60405161012291906107c9565b60405180910390f35b610133610335565b60405161014091906107c9565b60405180910390f35b61015161033b565b005b61015b6103ae565b60405161016891906107c9565b60405180910390f35b61018b6004803603810190610186919061092d565b6103b4565b005b610195610448565b6040516101a2919061078e565b60405180910390f35b6101b36104d6565b6040516101c091906109b7565b60405180910390f35b6101e360048036038101906101de91906109fe565b6104fa565b6040516101f0919061078e565b60405180910390f35b610201610639565b60405161020e91906107c9565b60405180910390f35b61021f61063f565b60405161022c91906107c9565b60405180910390f35b61023d610645565b60405161024a9190610a46565b60405180910390f35b61026d600480360381019061026891906109fe565b610658565b60405161027a919061078e565b60405180910390f35b61028b6106f8565b60405161029891906107c9565b60405180910390f35b600180546102ae90610a90565b80601f01602080910402602001604051908101604052809291908181526020018280546102da90610a90565b80156103275780601f106102fc57610100808354040283529160200191610327565b820191906000526020600020905b81548152906001019060200180831161030a57829003601f168201915b505050505081565b600a5481565b60075481565b60011515600860009054906101000a900460ff16151514610391576040517f08c379a000000000000000000000000000000000000000000000000000000000815260040161038890610b0d565b60405180910390fd5b6000600860006101000a81548160ff021916908315150217905550565b60025481565b60011515600860009054906101000a900460ff1615151461040a576040517f08c379a000000000000000000000000000000000000000000000000000000000815260040161040190610b0d565b60405180910390fd5b8060096000600a548152602001908152602001600020908161042c9190610cd9565b50600a600081548092919061044090610dda565b919050555050565b6003805461045590610a90565b80601f016020809104026020016040519081016040528092919081815260200182805461048190610a90565b80156104ce5780601f106104a3576101008083540402835291602001916104ce565b820191906000526020600020905b8154815290600101906020018083116104b157829003601f168201915b505050505081565b60008054906101000a900473ffffffffffffffffffffffffffffffffffffffff1681565b606060011515600860009054906101000a900460ff16151514610552576040517f08c379a000000000000000000000000000000000000000000000000000000000815260040161054990610b0d565b60405180910390fd5b600a548210610596576040517f08c379a000000000000000000000000000000000000000000000000000000000815260040161058d90610e6e565b60405180910390fd5b6009600083815260200190815260200160002080546105b490610a90565b80601f01602080910402602001604051908101604052809291908181526020018280546105e090610a90565b801561062d5780601f106106025761010080835404028352916020019161062d565b820191906000526020600020905b81548152906001019060200180831161061057829003601f168201915b50505050509050919050565b60065481565b60045481565b600860009054906101000a900460ff1681565b6009602052806000526040600020600091509050805461067790610a90565b80601f01602080910402602001604051908101604052809291908181526020018280546106a390610a90565b80156106f05780601f106106c5576101008083540402835291602001916106f0565b820191906000526020600020905b8154815290600101906020018083116106d357829003601f168201915b505050505081565b60055481565b600081519050919050565b600082825260208201905092915050565b60005b8381101561073857808201518184015260208101905061071d565b60008484015250505050565b6000601f19601f8301169050919050565b6000610760826106fe565b61076a8185610709565b935061077a81856020860161071a565b61078381610744565b840191505092915050565b600060208201905081810360008301526107a88184610755565b905092915050565b6000819050919050565b6107c3816107b0565b82525050565b60006020820190506107de60008301846107ba565b92915050565b6000604051905090565b600080fd5b600080fd5b600080fd5b600080fd5b7f4e487b7100000000000000000000000000000000000000000000000000000000600052604160045260246000fd5b61083a82610744565b810181811067ffffffffffffffff8211171561085957610858610802565b5b80604052505050565b600061086c6107e4565b90506108788282610831565b919050565b600067ffffffffffffffff82111561089857610897610802565b5b6108a182610744565b9050602081019050919050565b82818337600083830152505050565b60006108d06108cb8461087d565b610862565b9050828152602081018484840111156108ec576108eb6107fd565b5b6108f78482856108ae565b509392505050565b600082601f830112610914576109136107f8565b5b81356109248482602086016108bd565b91505092915050565b600060208284031215610943576109426107ee565b5b600082013567ffffffffffffffff811115610961576109606107f3565b5b61096d848285016108ff565b91505092915050565b600073ffffffffffffffffffffffffffffffffffffffff82169050919050565b60006109a182610976565b9050919050565b6109b181610996565b82525050565b60006020820190506109cc60008301846109a8565b92915050565b6109db816107b0565b81146109e657600080fd5b50565b6000813590506109f8816109d2565b92915050565b600060208284031215610a1457610a136107ee565b5b6000610a22848285016109e9565b91505092915050565b60008115159050919050565b610a4081610a2b565b82525050565b6000602082019050610a5b6000830184610a37565b92915050565b7f4e487b7100000000000000000000000000000000000000000000000000000000600052602260045260246000fd5b60006002820490506001821680610aa857607f821691505b602082108103610abb57610aba610a61565b5b50919050565b7f506f6c696379206973206e6f74206163746976652e0000000000000000000000600082015250565b6000610af7601583610709565b9150610b0282610ac1565b602082019050919050565b60006020820190508181036000830152610b2681610aea565b9050919050565b60008190508160005260206000209050919050565b60006020601f8301049050919050565b600082821b905092915050565b600060088302610b8f7fffffffffffffffffffffffffffffffffffffffffffffffffffffffffffffffff82610b52565b610b998683610b52565b95508019841693508086168417925050509392505050565b6000819050919050565b6000610bd6610bd1610bcc846107b0565b610bb1565b6107b0565b9050919050565b6000819050919050565b610bf083610bbb565b610c04610bfc82610bdd565b848454610b5f565b825550505050565b600090565b610c19610c0c565b610c24818484610be7565b505050565b5b81811015610c4857610c3d600082610c11565b600181019050610c2a565b5050565b601f821115610c8d57610c5e81610b2d565b610c6784610b42565b81016020851015610c76578190505b610c8a610c8285610b42565b830182610c29565b50505b505050565b600082821c905092915050565b6000610cb060001984600802610c92565b1980831691505092915050565b6000610cc98383610c9f565b9150826002028217905092915050565b610ce2826106fe565b67ffffffffffffffff811115610cfb57610cfa610802565b5b610d058254610a90565b610d10828285610c4c565b600060209050601f831160018114610d435760008415610d31578287015190505b610d3b8582610cbd565b865550610da3565b601f198416610d5186610b2d565b60005b82811015610d7957848901518255600182019150602085019450602081019050610d54565b86831015610d965784890151610d92601f891682610c9f565b8355505b6001600288020188555050505b505050505050565b7f4e487b7100000000000000000000000000000000000000000000000000000000600052601160045260246000fd5b6000610de5826107b0565b91507fffffffffffffffffffffffffffffffffffffffffffffffffffffffffffffffff8203610e1757610e16610dab565b5b600182019050919050565b7f496e76616c696420696e6465782e000000000000000000000000000000000000600082015250565b6000610e58600e83610709565b9150610e6382610e22565b602082019050919050565b60006020820190508181036000830152610e8781610e4b565b905091905056fea2646970667358221220cc39f795ea4ff844f42b524cf620a087c2dedb487cbd966eb24923a7c66bc85964736f6c63430008110033",
  "immutableReferences": {},
  "source": "pragma solidity ^0.8.0;\r\n/*\r\ncontract HealthInsurance {\r\n    address payable public insuranceCompany;\r\n    mapping(address => uint) public claims;\r\n\r\n    event Claim(address indexed claimant, uint amount);\r\n\r\n    constructor() {\r\n        insuranceCompany = payable(msg.sender);\r\n    }\r\n\r\n    function fileClaim() public payable {\r\n        require(msg.value > 0, \"Amount must be greater than zero.\");\r\n        claims[msg.sender] += msg.value;\r\n        emit Claim(msg.sender, msg.value);\r\n    }\r\n\r\n    function payout(address payable recipient) public {\r\n        require(msg.sender == insuranceCompany, \"Only the insurance company can make payouts.\");\r\n        require(claims[recipient] > 0, \"No claim exists for this address.\");\r\n        uint payoutAmount = claims[recipient];\r\n        claims[recipient] = 0;\r\n        recipient.transfer(payoutAmount);\r\n    }\r\n} */\r\n\r\n\r\n\r\n\r\ncontract HealthInsurance {\r\n    \r\n    // Policy holder details\r\n    address public policyHolder;\r\n    string public name;\r\n    uint public dateOfBirth;\r\n    string public gender;\r\n    \r\n    // Policy details\r\n    uint public policyNumber;\r\n    uint public policyStartDate;\r\n    uint public policyEndDate;\r\n    uint public premiumAmount;\r\n    bool public policyStatus;\r\n    \r\n    // Health records\r\n    mapping(uint => string) public healthRecords;\r\n    uint public numberOfHealthRecords;\r\n    \r\n    // Constructor function\r\n    constructor(address _policyHolder, string memory _name, uint _dateOfBirth, string memory _gender, uint _policyNumber, uint _policyStartDate, uint _policyEndDate, uint _premiumAmount) {\r\n        policyHolder = _policyHolder;\r\n        name = _name;\r\n        dateOfBirth = _dateOfBirth;\r\n        gender = _gender;\r\n        policyNumber = _policyNumber;\r\n        policyStartDate = _policyStartDate;\r\n        policyEndDate = _policyEndDate;\r\n        premiumAmount = _premiumAmount;\r\n        policyStatus = true;\r\n    }\r\n    \r\n    // Modifier to check policy status\r\n    modifier isPolicyActive() {\r\n        require(policyStatus == true, \"Policy is not active.\");\r\n        _;\r\n    }\r\n    \r\n    // Function to add health records\r\n    function addHealthRecord(string memory _healthRecord) public isPolicyActive {\r\n        healthRecords[numberOfHealthRecords] = _healthRecord;\r\n        numberOfHealthRecords++;\r\n    }\r\n    \r\n    // Function to get health records\r\n    function getHealthRecord(uint _index) public view isPolicyActive returns(string memory) {\r\n        require(_index < numberOfHealthRecords, \"Invalid index.\");\r\n        return healthRecords[_index];\r\n    }\r\n    \r\n    // Function to cancel policy\r\n    function cancelPolicy() public isPolicyActive {\r\n        policyStatus = false;\r\n    }\r\n}\r\n",
  "sourcePath": "C:\\Users\\DELL\\Desktop\\truffleproj\\medical\\contracts\\MedicalChain.sol",
  "compiler": {
    "name": "solc",
    "version": "0.8.17+commit.8df45f5f.Emscripten.clang"
  },
  "schemaVersion": "3.4.11",
  "updatedAt": "2023-03-06T09:46:19.716Z",
  "devdoc": {
    "kind": "dev",
    "methods": {},
    "version": 1
  },
  "userdoc": {
    "kind": "user",
    "methods": {},
    "version": 1
  }
}